{
  "_format": "hh-sol-artifact-1",
  "contractName": "GovernorAlpha",
  "sourceName": "contracts/GovernorAlpha.sol",
  "abi": [
    {
      "inputs": [
        {
          "internalType": "address",
          "name": "timelock_",
          "type": "address"
        },
        {
          "internalType": "address",
          "name": "honey_",
          "type": "address"
        },
        {
          "internalType": "address",
          "name": "guardian_",
          "type": "address"
        }
      ],
      "payable": false,
      "stateMutability": "nonpayable",
      "type": "constructor"
    },
    {
      "anonymous": false,
      "inputs": [
        {
          "indexed": false,
          "internalType": "uint256",
          "name": "id",
          "type": "uint256"
        }
      ],
      "name": "ProposalCanceled",
      "type": "event"
    },
    {
      "anonymous": false,
      "inputs": [
        {
          "indexed": false,
          "internalType": "uint256",
          "name": "id",
          "type": "uint256"
        },
        {
          "indexed": false,
          "internalType": "address",
          "name": "proposer",
          "type": "address"
        },
        {
          "indexed": false,
          "internalType": "address[]",
          "name": "targets",
          "type": "address[]"
        },
        {
          "indexed": false,
          "internalType": "uint256[]",
          "name": "values",
          "type": "uint256[]"
        },
        {
          "indexed": false,
          "internalType": "string[]",
          "name": "signatures",
          "type": "string[]"
        },
        {
          "indexed": false,
          "internalType": "bytes[]",
          "name": "calldatas",
          "type": "bytes[]"
        },
        {
          "indexed": false,
          "internalType": "uint256",
          "name": "startTime",
          "type": "uint256"
        },
        {
          "indexed": false,
          "internalType": "uint256",
          "name": "endTime",
          "type": "uint256"
        },
        {
          "indexed": false,
          "internalType": "string",
          "name": "description",
          "type": "string"
        }
      ],
      "name": "ProposalCreated",
      "type": "event"
    },
    {
      "anonymous": false,
      "inputs": [
        {
          "indexed": false,
          "internalType": "uint256",
          "name": "id",
          "type": "uint256"
        }
      ],
      "name": "ProposalExecuted",
      "type": "event"
    },
    {
      "anonymous": false,
      "inputs": [
        {
          "indexed": false,
          "internalType": "uint256",
          "name": "id",
          "type": "uint256"
        },
        {
          "indexed": false,
          "internalType": "uint256",
          "name": "eta",
          "type": "uint256"
        }
      ],
      "name": "ProposalQueued",
      "type": "event"
    },
    {
      "anonymous": false,
      "inputs": [
        {
          "indexed": false,
          "internalType": "uint256",
          "name": "proposalId",
          "type": "uint256"
        },
        {
          "indexed": false,
          "internalType": "uint256",
          "name": "startBlock",
          "type": "uint256"
        }
      ],
      "name": "StartBlockSet",
      "type": "event"
    },
    {
      "anonymous": false,
      "inputs": [
        {
          "indexed": false,
          "internalType": "address",
          "name": "voter",
          "type": "address"
        },
        {
          "indexed": false,
          "internalType": "uint256",
          "name": "proposalId",
          "type": "uint256"
        },
        {
          "indexed": false,
          "internalType": "bool",
          "name": "support",
          "type": "bool"
        },
        {
          "indexed": false,
          "internalType": "uint256",
          "name": "votes",
          "type": "uint256"
        }
      ],
      "name": "VoteCast",
      "type": "event"
    },
    {
      "constant": true,
      "inputs": [],
      "name": "BALLOT_TYPEHASH",
      "outputs": [
        {
          "internalType": "bytes32",
          "name": "",
          "type": "bytes32"
        }
      ],
      "payable": false,
      "stateMutability": "view",
      "type": "function"
    },
    {
      "constant": true,
      "inputs": [],
      "name": "DOMAIN_TYPEHASH",
      "outputs": [
        {
          "internalType": "bytes32",
          "name": "",
          "type": "bytes32"
        }
      ],
      "payable": false,
      "stateMutability": "view",
      "type": "function"
    },
    {
      "constant": false,
      "inputs": [],
      "name": "__abdicate",
      "outputs": [],
      "payable": false,
      "stateMutability": "nonpayable",
      "type": "function"
    },
    {
      "constant": false,
      "inputs": [],
      "name": "__acceptAdmin",
      "outputs": [],
      "payable": false,
      "stateMutability": "nonpayable",
      "type": "function"
    },
    {
      "constant": false,
      "inputs": [
        {
          "internalType": "address",
          "name": "newPendingAdmin",
          "type": "address"
        },
        {
          "internalType": "uint256",
          "name": "eta",
          "type": "uint256"
        }
      ],
      "name": "__executeSetTimelockPendingAdmin",
      "outputs": [],
      "payable": false,
      "stateMutability": "nonpayable",
      "type": "function"
    },
    {
      "constant": false,
      "inputs": [
        {
          "internalType": "address",
          "name": "newPendingAdmin",
          "type": "address"
        },
        {
          "internalType": "uint256",
          "name": "eta",
          "type": "uint256"
        }
      ],
      "name": "__queueSetTimelockPendingAdmin",
      "outputs": [],
      "payable": false,
      "stateMutability": "nonpayable",
      "type": "function"
    },
    {
      "constant": false,
      "inputs": [
        {
          "internalType": "uint256",
          "name": "proposalId",
          "type": "uint256"
        }
      ],
      "name": "cancel",
      "outputs": [],
      "payable": false,
      "stateMutability": "nonpayable",
      "type": "function"
    },
    {
      "constant": false,
      "inputs": [
        {
          "internalType": "uint256",
          "name": "proposalId",
          "type": "uint256"
        },
        {
          "internalType": "bool",
          "name": "support",
          "type": "bool"
        }
      ],
      "name": "castVote",
      "outputs": [],
      "payable": false,
      "stateMutability": "nonpayable",
      "type": "function"
    },
    {
      "constant": false,
      "inputs": [
        {
          "internalType": "uint256",
          "name": "proposalId",
          "type": "uint256"
        },
        {
          "internalType": "bool",
          "name": "support",
          "type": "bool"
        },
        {
          "internalType": "uint8",
          "name": "v",
          "type": "uint8"
        },
        {
          "internalType": "bytes32",
          "name": "r",
          "type": "bytes32"
        },
        {
          "internalType": "bytes32",
          "name": "s",
          "type": "bytes32"
        }
      ],
      "name": "castVoteBySig",
      "outputs": [],
      "payable": false,
      "stateMutability": "nonpayable",
      "type": "function"
    },
    {
      "constant": false,
      "inputs": [
        {
          "internalType": "uint256",
          "name": "proposalId",
          "type": "uint256"
        }
      ],
      "name": "execute",
      "outputs": [],
      "payable": true,
      "stateMutability": "payable",
      "type": "function"
    },
    {
      "constant": true,
      "inputs": [
        {
          "internalType": "uint256",
          "name": "proposalId",
          "type": "uint256"
        }
      ],
      "name": "getActions",
      "outputs": [
        {
          "internalType": "address[]",
          "name": "targets",
          "type": "address[]"
        },
        {
          "internalType": "uint256[]",
          "name": "values",
          "type": "uint256[]"
        },
        {
          "internalType": "string[]",
          "name": "signatures",
          "type": "string[]"
        },
        {
          "internalType": "bytes[]",
          "name": "calldatas",
          "type": "bytes[]"
        }
      ],
      "payable": false,
      "stateMutability": "view",
      "type": "function"
    },
    {
      "constant": true,
      "inputs": [
        {
          "internalType": "uint256",
          "name": "proposalId",
          "type": "uint256"
        },
        {
          "internalType": "address",
          "name": "voter",
          "type": "address"
        }
      ],
      "name": "getReceipt",
      "outputs": [
        {
          "components": [
            {
              "internalType": "bool",
              "name": "hasVoted",
              "type": "bool"
            },
            {
              "internalType": "bool",
              "name": "support",
              "type": "bool"
            },
            {
              "internalType": "uint96",
              "name": "votes",
              "type": "uint96"
            }
          ],
          "internalType": "struct GovernorAlpha.Receipt",
          "name": "",
          "type": "tuple"
        }
      ],
      "payable": false,
      "stateMutability": "view",
      "type": "function"
    },
    {
      "constant": true,
      "inputs": [],
      "name": "guardian",
      "outputs": [
        {
          "internalType": "address",
          "name": "",
          "type": "address"
        }
      ],
      "payable": false,
      "stateMutability": "view",
      "type": "function"
    },
    {
      "constant": true,
      "inputs": [],
      "name": "honey",
      "outputs": [
        {
          "internalType": "contract HoneyInterface",
          "name": "",
          "type": "address"
        }
      ],
      "payable": false,
      "stateMutability": "view",
      "type": "function"
    },
    {
      "constant": true,
      "inputs": [
        {
          "internalType": "address",
          "name": "",
          "type": "address"
        }
      ],
      "name": "latestProposalIds",
      "outputs": [
        {
          "internalType": "uint256",
          "name": "",
          "type": "uint256"
        }
      ],
      "payable": false,
      "stateMutability": "view",
      "type": "function"
    },
    {
      "constant": true,
      "inputs": [],
      "name": "name",
      "outputs": [
        {
          "internalType": "string",
          "name": "",
          "type": "string"
        }
      ],
      "payable": false,
      "stateMutability": "view",
      "type": "function"
    },
    {
      "constant": true,
      "inputs": [],
      "name": "proposalCount",
      "outputs": [
        {
          "internalType": "uint256",
          "name": "",
          "type": "uint256"
        }
      ],
      "payable": false,
      "stateMutability": "view",
      "type": "function"
    },
    {
      "constant": true,
      "inputs": [],
      "name": "proposalMaxOperations",
      "outputs": [
        {
          "internalType": "uint256",
          "name": "",
          "type": "uint256"
        }
      ],
      "payable": false,
      "stateMutability": "pure",
      "type": "function"
    },
    {
      "constant": true,
      "inputs": [],
      "name": "proposalThreshold",
      "outputs": [
        {
          "internalType": "uint256",
          "name": "",
          "type": "uint256"
        }
      ],
      "payable": false,
      "stateMutability": "pure",
      "type": "function"
    },
    {
      "constant": true,
      "inputs": [
        {
          "internalType": "uint256",
          "name": "",
          "type": "uint256"
        }
      ],
      "name": "proposals",
      "outputs": [
        {
          "internalType": "uint256",
          "name": "id",
          "type": "uint256"
        },
        {
          "internalType": "address",
          "name": "proposer",
          "type": "address"
        },
        {
          "internalType": "uint256",
          "name": "eta",
          "type": "uint256"
        },
        {
          "internalType": "uint256",
          "name": "startTime",
          "type": "uint256"
        },
        {
          "internalType": "uint256",
          "name": "endTime",
          "type": "uint256"
        },
        {
          "internalType": "uint256",
          "name": "startBlock",
          "type": "uint256"
        },
        {
          "internalType": "uint256",
          "name": "forVotes",
          "type": "uint256"
        },
        {
          "internalType": "uint256",
          "name": "againstVotes",
          "type": "uint256"
        },
        {
          "internalType": "bool",
          "name": "canceled",
          "type": "bool"
        },
        {
          "internalType": "bool",
          "name": "executed",
          "type": "bool"
        }
      ],
      "payable": false,
      "stateMutability": "view",
      "type": "function"
    },
    {
      "constant": false,
      "inputs": [
        {
          "internalType": "address[]",
          "name": "targets",
          "type": "address[]"
        },
        {
          "internalType": "uint256[]",
          "name": "values",
          "type": "uint256[]"
        },
        {
          "internalType": "string[]",
          "name": "signatures",
          "type": "string[]"
        },
        {
          "internalType": "bytes[]",
          "name": "calldatas",
          "type": "bytes[]"
        },
        {
          "internalType": "string",
          "name": "description",
          "type": "string"
        }
      ],
      "name": "propose",
      "outputs": [
        {
          "internalType": "uint256",
          "name": "",
          "type": "uint256"
        }
      ],
      "payable": false,
      "stateMutability": "nonpayable",
      "type": "function"
    },
    {
      "constant": false,
      "inputs": [
        {
          "internalType": "uint256",
          "name": "proposalId",
          "type": "uint256"
        }
      ],
      "name": "queue",
      "outputs": [],
      "payable": false,
      "stateMutability": "nonpayable",
      "type": "function"
    },
    {
      "constant": true,
      "inputs": [
        {
          "internalType": "uint256",
          "name": "proposalId",
          "type": "uint256"
        }
      ],
      "name": "state",
      "outputs": [
        {
          "internalType": "enum GovernorAlpha.ProposalState",
          "name": "",
          "type": "uint8"
        }
      ],
      "payable": false,
      "stateMutability": "view",
      "type": "function"
    },
    {
      "constant": true,
      "inputs": [],
      "name": "timelock",
      "outputs": [
        {
          "internalType": "contract TimelockInterface",
          "name": "",
          "type": "address"
        }
      ],
      "payable": false,
      "stateMutability": "view",
      "type": "function"
    },
    {
      "constant": true,
      "inputs": [],
      "name": "votingDelay",
      "outputs": [
        {
          "internalType": "uint256",
          "name": "",
          "type": "uint256"
        }
      ],
      "payable": false,
      "stateMutability": "pure",
      "type": "function"
    },
    {
      "constant": true,
      "inputs": [],
      "name": "votingPeriod",
      "outputs": [
        {
          "internalType": "uint256",
          "name": "",
          "type": "uint256"
        }
      ],
      "payable": false,
      "stateMutability": "pure",
      "type": "function"
    }
  ],
  "bytecode": "0x60806040523480156200001157600080fd5b506040516200543938038062005439833981810160405262000037919081019062000119565b826000806101000a81548173ffffffffffffffffffffffffffffffffffffffff021916908373ffffffffffffffffffffffffffffffffffffffff16021790555081600160006101000a81548173ffffffffffffffffffffffffffffffffffffffff021916908373ffffffffffffffffffffffffffffffffffffffff16021790555080600260006101000a81548173ffffffffffffffffffffffffffffffffffffffff021916908373ffffffffffffffffffffffffffffffffffffffff160217905550505050620001bd565b6000815190506200011381620001a3565b92915050565b6000806000606084860312156200012f57600080fd5b60006200013f8682870162000102565b9350506020620001528682870162000102565b9250506040620001658682870162000102565b9150509250925092565b60006200017c8262000183565b9050919050565b600073ffffffffffffffffffffffffffffffffffffffff82169050919050565b620001ae816200016f565b8114620001ba57600080fd5b50565b61526c80620001cd6000396000f3fe6080604052600436106101815760003560e01c80634634c61f116100d1578063d33219b41161008a578063ddf0b00911610064578063ddf0b0091461056c578063deaaa7cc14610595578063e23a9a52146105c0578063fe0d94c1146105fd57610181565b8063d33219b4146104d9578063da35c66414610504578063da95691a1461052f57610181565b80634634c61f14610403578063760fbc131461042c5780637bdbe4d014610443578063915006711461046e578063b58131b014610497578063b9a61961146104c257610181565b806321f43e421161013e5780633932abb1116101185780633932abb1146103475780633e4f49e61461037257806340e58ee5146103af578063452a9320146103d857610181565b806321f43e42146102b3578063328dd982146102dc57806336b2c4b21461031c57610181565b8063013cf08b1461018657806302a251a3146101cc57806306fdde03146101f757806315373e3d1461022257806317977c611461024b57806320606b7014610288575b600080fd5b34801561019257600080fd5b506101ad60048036036101a89190810190613331565b610619565b6040516101c39a99989796959493929190614c2c565b60405180910390f35b3480156101d857600080fd5b506101e16106a7565b6040516101ee9190614b61565b60405180910390f35b34801561020357600080fd5b5061020c6106b2565b6040516102199190614884565b60405180910390f35b34801561022e57600080fd5b50610249600480360361024491908101906133bf565b6106eb565b005b34801561025757600080fd5b50610272600480360361026d919081019061314a565b6106fa565b60405161027f9190614b61565b60405180910390f35b34801561029457600080fd5b5061029d610712565b6040516102aa9190614757565b60405180910390f35b3480156102bf57600080fd5b506102da60048036036102d59190810190613173565b610729565b005b3480156102e857600080fd5b5061030360048036036102fe9190810190613331565b6108b6565b60405161031394939291906146f6565b60405180910390f35b34801561032857600080fd5b50610331610b93565b60405161033e9190614833565b60405180910390f35b34801561035357600080fd5b5061035c610bb9565b6040516103699190614b61565b60405180910390f35b34801561037e57600080fd5b5061039960048036036103949190810190613331565b610bc4565b6040516103a69190614869565b60405180910390f35b3480156103bb57600080fd5b506103d660048036036103d19190810190613331565b610d91565b005b3480156103e457600080fd5b506103ed6110d5565b6040516103fa9190614523565b60405180910390f35b34801561040f57600080fd5b5061042a600480360361042591908101906133fb565b6110fb565b005b34801561043857600080fd5b506104416112ca565b005b34801561044f57600080fd5b5061045861139e565b6040516104659190614b61565b60405180910390f35b34801561047a57600080fd5b5061049560048036036104909190810190613173565b6113a7565b005b3480156104a357600080fd5b506104ac61152f565b6040516104b99190614b61565b60405180910390f35b3480156104ce57600080fd5b506104d7611542565b005b3480156104e557600080fd5b506104ee611655565b6040516104fb919061484e565b60405180910390f35b34801561051057600080fd5b5061051961167a565b6040516105269190614b61565b60405180910390f35b34801561053b57600080fd5b50610556600480360361055191908101906131af565b611680565b6040516105639190614b61565b60405180910390f35b34801561057857600080fd5b50610593600480360361058e9190810190613331565b611c6f565b005b3480156105a157600080fd5b506105aa611fbe565b6040516105b79190614757565b60405180910390f35b3480156105cc57600080fd5b506105e760048036036105e29190810190613383565b611fd5565b6040516105f49190614b46565b60405180910390f35b61061760048036036106129190810190613331565b6120b7565b005b60046020528060005260406000206000915090508060000154908060010160009054906101000a900473ffffffffffffffffffffffffffffffffffffffff169080600201549080600701549080600801549080600901549080600a01549080600b01549080600c0160009054906101000a900460ff169080600c0160019054906101000a900460ff1690508a565b60006203f480905090565b6040518060400160405280601481526020017f486f6e657920476f7665726e6f7220416c70686100000000000000000000000081525081565b6106f6338383612304565b5050565b60056020528060005260406000206000915090505481565b60405161071e906144f9565b604051809103902081565b600260009054906101000a900473ffffffffffffffffffffffffffffffffffffffff1673ffffffffffffffffffffffffffffffffffffffff163373ffffffffffffffffffffffffffffffffffffffff16146107b9576040517f08c379a00000000000000000000000000000000000000000000000000000000081526004016107b090614906565b60405180910390fd5b6000809054906101000a900473ffffffffffffffffffffffffffffffffffffffff1673ffffffffffffffffffffffffffffffffffffffff16630825f38f6000809054906101000a900473ffffffffffffffffffffffffffffffffffffffff1660008560405160200161082b9190614523565b604051602081830303815290604052856040518563ffffffff1660e01b815260040161085a9493929190614567565b600060405180830381600087803b15801561087457600080fd5b505af1158015610888573d6000803e3d6000fd5b505050506040513d6000823e3d601f19601f820116820180604052506108b191908101906132f0565b505050565b6060806060806000600460008781526020019081526020016000209050806003018160040182600501836006018380548060200260200160405190810160405280929190818152602001828054801561096457602002820191906000526020600020905b8160009054906101000a900473ffffffffffffffffffffffffffffffffffffffff1673ffffffffffffffffffffffffffffffffffffffff168152602001906001019080831161091a575b50505050509350828054806020026020016040519081016040528092919081815260200182805480156109b657602002820191906000526020600020905b8154815260200190600101908083116109a2575b5050505050925081805480602002602001604051908101604052809291908181526020016000905b82821015610a9a578382906000526020600020018054600181600116156101000203166002900480601f016020809104026020016040519081016040528092919081815260200182805460018160011615610100020316600290048015610a865780601f10610a5b57610100808354040283529160200191610a86565b820191906000526020600020905b815481529060010190602001808311610a6957829003601f168201915b5050505050815260200190600101906109de565b50505050915080805480602002602001604051908101604052809291908181526020016000905b82821015610b7d578382906000526020600020018054600181600116156101000203166002900480601f016020809104026020016040519081016040528092919081815260200182805460018160011615610100020316600290048015610b695780601f10610b3e57610100808354040283529160200191610b69565b820191906000526020600020905b815481529060010190602001808311610b4c57829003601f168201915b505050505081526020019060010190610ac1565b5050505090509450945094509450509193509193565b600160009054906101000a900473ffffffffffffffffffffffffffffffffffffffff1681565b600062015180905090565b60008160035410158015610bd85750600082115b610c17576040517f08c379a0000000000000000000000000000000000000000000000000000000008152600401610c0e90614926565b60405180910390fd5b600060046000848152602001908152602001600020905080600c0160009054906101000a900460ff1615610c4f576002915050610d8c565b80600701544211610c64576000915050610d8c565b80600801544211610c79576001915050610d8c565b80600b015481600a015411610c92576003915050610d8c565b600081600201541415610ca9576004915050610d8c565b80600c0160019054906101000a900460ff1615610cca576007915050610d8c565b610d7681600201546000809054906101000a900473ffffffffffffffffffffffffffffffffffffffff1673ffffffffffffffffffffffffffffffffffffffff1663c1a287e26040518163ffffffff1660e01b815260040160206040518083038186803b158015610d3957600080fd5b505afa158015610d4d573d6000803e3d6000fd5b505050506040513d601f19601f82011682018060405250610d71919081019061335a565b612626565b4210610d86576006915050610d8c565b60059150505b919050565b6000610d9c82610bc4565b9050600780811115610daa57fe5b816007811115610db657fe5b1415610df7576040517f08c379a0000000000000000000000000000000000000000000000000000000008152600401610dee90614ac6565b60405180910390fd5b6000600460008481526020019081526020016000209050610e1661152f565b600160009054906101000a900473ffffffffffffffffffffffffffffffffffffffff1673ffffffffffffffffffffffffffffffffffffffff1663782d6fe18360010160009054906101000a900473ffffffffffffffffffffffffffffffffffffffff16610e8443600161267b565b6040518363ffffffff1660e01b8152600401610ea19291906145c6565b60206040518083038186803b158015610eb957600080fd5b505afa158015610ecd573d6000803e3d6000fd5b505050506040513d601f19601f82011682018060405250610ef19190810190613472565b6bffffffffffffffffffffffff1610610f3f576040517f08c379a0000000000000000000000000000000000000000000000000000000008152600401610f3690614a06565b60405180910390fd5b600181600c0160006101000a81548160ff02191690831515021790555060008090505b8160030180549050811015611098576000809054906101000a900473ffffffffffffffffffffffffffffffffffffffff1673ffffffffffffffffffffffffffffffffffffffff1663591fcdfe836003018381548110610fbd57fe5b9060005260206000200160009054906101000a900473ffffffffffffffffffffffffffffffffffffffff16846004018481548110610ff757fe5b906000526020600020015485600501858154811061101157fe5b9060005260206000200186600601868154811061102a57fe5b9060005260206000200187600201546040518663ffffffff1660e01b8152600401611059959493929190614695565b600060405180830381600087803b15801561107357600080fd5b505af1158015611087573d6000803e3d6000fd5b505050508080600101915050610f62565b507f789cf55be980739dad1d0699b93b58e806b51c9d96619bfa8fe0a28abaa7b30c836040516110c89190614b61565b60405180910390a1505050565b600260009054906101000a900473ffffffffffffffffffffffffffffffffffffffff1681565b6000604051611109906144f9565b60405180910390206040518060400160405280601481526020017f486f6e657920476f7665726e6f7220416c706861000000000000000000000000815250805190602001206111566126cb565b3060405160200161116a9493929190614772565b60405160208183030381529060405280519060200120905060006040516111909061450e565b604051809103902087876040516020016111ac939291906147b7565b604051602081830303815290604052805190602001209050600082826040516020016111d99291906144c2565b60405160208183030381529060405280519060200120905060006001828888886040516000815260200160405260405161121694939291906147ee565b6020604051602081039080840390855afa158015611238573d6000803e3d6000fd5b505050602060405103519050600073ffffffffffffffffffffffffffffffffffffffff168173ffffffffffffffffffffffffffffffffffffffff1614156112b4576040517f08c379a00000000000000000000000000000000000000000000000000000000081526004016112ab90614a86565b60405180910390fd5b6112bf818a8a612304565b505050505050505050565b600260009054906101000a900473ffffffffffffffffffffffffffffffffffffffff1673ffffffffffffffffffffffffffffffffffffffff163373ffffffffffffffffffffffffffffffffffffffff161461135a576040517f08c379a000000000000000000000000000000000000000000000000000000000815260040161135190614b26565b60405180910390fd5b6000600260006101000a81548173ffffffffffffffffffffffffffffffffffffffff021916908373ffffffffffffffffffffffffffffffffffffffff160217905550565b6000600a905090565b600260009054906101000a900473ffffffffffffffffffffffffffffffffffffffff1673ffffffffffffffffffffffffffffffffffffffff163373ffffffffffffffffffffffffffffffffffffffff1614611437576040517f08c379a000000000000000000000000000000000000000000000000000000000815260040161142e90614986565b60405180910390fd5b6000809054906101000a900473ffffffffffffffffffffffffffffffffffffffff1673ffffffffffffffffffffffffffffffffffffffff16633a66f9016000809054906101000a900473ffffffffffffffffffffffffffffffffffffffff166000856040516020016114a99190614523565b604051602081830303815290604052856040518563ffffffff1660e01b81526004016114d89493929190614567565b602060405180830381600087803b1580156114f257600080fd5b505af1158015611506573d6000803e3d6000fd5b505050506040513d601f19601f8201168201806040525061152a91908101906132c7565b505050565b60006a084595161401484a000000905090565b600260009054906101000a900473ffffffffffffffffffffffffffffffffffffffff1673ffffffffffffffffffffffffffffffffffffffff163373ffffffffffffffffffffffffffffffffffffffff16146115d2576040517f08c379a00000000000000000000000000000000000000000000000000000000081526004016115c9906148a6565b60405180910390fd5b6000809054906101000a900473ffffffffffffffffffffffffffffffffffffffff1673ffffffffffffffffffffffffffffffffffffffff16630e18b6816040518163ffffffff1660e01b8152600401600060405180830381600087803b15801561163b57600080fd5b505af115801561164f573d6000803e3d6000fd5b50505050565b6000809054906101000a900473ffffffffffffffffffffffffffffffffffffffff1681565b60035481565b600061168a61152f565b600160009054906101000a900473ffffffffffffffffffffffffffffffffffffffff1673ffffffffffffffffffffffffffffffffffffffff1663782d6fe1336116d443600161267b565b6040518363ffffffff1660e01b81526004016116f192919061453e565b60206040518083038186803b15801561170957600080fd5b505afa15801561171d573d6000803e3d6000fd5b505050506040513d601f19601f820116820180604052506117419190810190613472565b6bffffffffffffffffffffffff161161178f576040517f08c379a000000000000000000000000000000000000000000000000000000000815260040161178690614a66565b60405180910390fd5b845186511480156117a1575083518651145b80156117ae575082518651145b6117ed576040517f08c379a00000000000000000000000000000000000000000000000000000000081526004016117e4906149e6565b60405180910390fd5b600086511415611832576040517f08c379a000000000000000000000000000000000000000000000000000000000815260040161182990614a46565b60405180910390fd5b61183a61139e565b8651111561187d576040517f08c379a0000000000000000000000000000000000000000000000000000000008152600401611874906149a6565b60405180910390fd5b6000600560003373ffffffffffffffffffffffffffffffffffffffff1673ffffffffffffffffffffffffffffffffffffffff1681526020019081526020016000205490506000811461198c5760006118d482610bc4565b9050600160078111156118e357fe5b8160078111156118ef57fe5b1415611930576040517f08c379a000000000000000000000000000000000000000000000000000000000815260040161192790614aa6565b60405180910390fd5b6000600781111561193d57fe5b81600781111561194957fe5b141561198a576040517f08c379a000000000000000000000000000000000000000000000000000000000815260040161198190614966565b60405180910390fd5b505b600061199f4261199a610bb9565b612626565b905060006119c4426119bf6119b26106a7565b6119ba610bb9565b612626565b612626565b90506003600081548092919060010191905055506119e06128ac565b604051806101c0016040528060035481526020013373ffffffffffffffffffffffffffffffffffffffff168152602001600081526020018b81526020018a81526020018981526020018881526020018481526020018381526020016000815260200160008152602001600081526020016000151581526020016000151581525090508060046000836000015181526020019081526020016000206000820151816000015560208201518160010160006101000a81548173ffffffffffffffffffffffffffffffffffffffff021916908373ffffffffffffffffffffffffffffffffffffffff160217905550604082015181600201556060820151816003019080519060200190611af1929190612935565b506080820151816004019080519060200190611b0e9291906129bf565b5060a0820151816005019080519060200190611b2b929190612a0c565b5060c0820151816006019080519060200190611b48929190612a6c565b5060e082015181600701556101008201518160080155610120820151816009015561014082015181600a015561016082015181600b015561018082015181600c0160006101000a81548160ff0219169083151502179055506101a082015181600c0160016101000a81548160ff021916908315150217905550905050806000015160056000836020015173ffffffffffffffffffffffffffffffffffffffff1673ffffffffffffffffffffffffffffffffffffffff168152602001908152602001600020819055507f7d84a6263ae0d98d3329bd7b46bb4e8d6f98cd35a7adb45c274c8b7fd5ebd5e08160000151338c8c8c8c89898e604051611c5399989796959493929190614b7c565b60405180910390a1806000015194505050505095945050505050565b60046007811115611c7c57fe5b611c8582610bc4565b6007811115611c9057fe5b14611cd0576040517f08c379a0000000000000000000000000000000000000000000000000000000008152600401611cc7906148c6565b60405180910390fd5b60006004600083815260200190815260200160002090506000611d91426000809054906101000a900473ffffffffffffffffffffffffffffffffffffffff1673ffffffffffffffffffffffffffffffffffffffff16636a42b8f86040518163ffffffff1660e01b815260040160206040518083038186803b158015611d5457600080fd5b505afa158015611d68573d6000803e3d6000fd5b505050506040513d601f19601f82011682018060405250611d8c919081019061335a565b612626565b905060008090505b8260030180549050811015611f7657611f69836003018281548110611dba57fe5b9060005260206000200160009054906101000a900473ffffffffffffffffffffffffffffffffffffffff16846004018381548110611df457fe5b9060005260206000200154856005018481548110611e0e57fe5b906000526020600020018054600181600116156101000203166002900480601f016020809104026020016040519081016040528092919081815260200182805460018160011615610100020316600290048015611eac5780601f10611e8157610100808354040283529160200191611eac565b820191906000526020600020905b815481529060010190602001808311611e8f57829003601f168201915b5050505050866006018581548110611ec057fe5b906000526020600020018054600181600116156101000203166002900480601f016020809104026020016040519081016040528092919081815260200182805460018160011615610100020316600290048015611f5e5780601f10611f3357610100808354040283529160200191611f5e565b820191906000526020600020905b815481529060010190602001808311611f4157829003601f168201915b5050505050866126d8565b8080600101915050611d99565b508082600201819055507f9a2e42fd6722813d69113e7d0079d3d940171428df7373df9c7f7617cfda28928382604051611fb1929190614cc8565b60405180910390a1505050565b604051611fca9061450e565b604051809103902081565b611fdd612acc565b60046000848152602001908152602001600020600d0160008373ffffffffffffffffffffffffffffffffffffffff1673ffffffffffffffffffffffffffffffffffffffff1681526020019081526020016000206040518060600160405290816000820160009054906101000a900460ff161515151581526020016000820160019054906101000a900460ff161515151581526020016000820160029054906101000a90046bffffffffffffffffffffffff166bffffffffffffffffffffffff166bffffffffffffffffffffffff1681525050905092915050565b600560078111156120c457fe5b6120cd82610bc4565b60078111156120d857fe5b14612118576040517f08c379a000000000000000000000000000000000000000000000000000000000815260040161210f906148e6565b60405180910390fd5b6000600460008381526020019081526020016000209050600181600c0160016101000a81548160ff02191690831515021790555060008090505b81600301805490508110156122c8576000809054906101000a900473ffffffffffffffffffffffffffffffffffffffff1673ffffffffffffffffffffffffffffffffffffffff16630825f38f8360040183815481106121ad57fe5b90600052602060002001548460030184815481106121c757fe5b9060005260206000200160009054906101000a900473ffffffffffffffffffffffffffffffffffffffff1685600401858154811061220157fe5b906000526020600020015486600501868154811061221b57fe5b9060005260206000200187600601878154811061223457fe5b9060005260206000200188600201546040518763ffffffff1660e01b8152600401612263959493929190614695565b6000604051808303818588803b15801561227c57600080fd5b505af1158015612290573d6000803e3d6000fd5b50505050506040513d6000823e3d601f19601f820116820180604052506122ba91908101906132f0565b508080600101915050612152565b507f712ae1383f79ac853f8d882153778e0260ef8f03b504e2866e0593e04d2b291f826040516122f89190614b61565b60405180910390a15050565b6001600781111561231157fe5b61231a83610bc4565b600781111561232557fe5b14612365576040517f08c379a000000000000000000000000000000000000000000000000000000000815260040161235c90614ae6565b60405180910390fd5b60006004600084815260200190815260200160002090506000816009015414156123cf576001430381600901819055507f0d1e02ccd52fe49c19093261ba25ca959463e72ed10577de6069a95c14cd04ee83436040516123c6929190614cc8565b60405180910390a15b600081600d0160008673ffffffffffffffffffffffffffffffffffffffff1673ffffffffffffffffffffffffffffffffffffffff1681526020019081526020016000209050600015158160000160009054906101000a900460ff1615151461246c576040517f08c379a000000000000000000000000000000000000000000000000000000000815260040161246390614946565b60405180910390fd5b6000600160009054906101000a900473ffffffffffffffffffffffffffffffffffffffff1673ffffffffffffffffffffffffffffffffffffffff1663782d6fe18785600901546040518363ffffffff1660e01b81526004016124cf9291906145c6565b60206040518083038186803b1580156124e757600080fd5b505afa1580156124fb573d6000803e3d6000fd5b505050506040513d601f19601f8201168201806040525061251f9190810190613472565b905083156125505761254383600a0154826bffffffffffffffffffffffff16612626565b83600a0181905550612575565b61256c83600b0154826bffffffffffffffffffffffff16612626565b83600b01819055505b60018260000160006101000a81548160ff021916908315150217905550838260000160016101000a81548160ff021916908315150217905550808260000160026101000a8154816bffffffffffffffffffffffff02191690836bffffffffffffffffffffffff1602179055507f877856338e13f63d0c36822ff0ef736b80934cd90574a3a5bc9262c39d217c468686868460405161261694939291906145ef565b60405180910390a1505050505050565b600080828401905083811015612671576040517f08c379a0000000000000000000000000000000000000000000000000000000008152600401612668906149c6565b60405180910390fd5b8091505092915050565b6000828211156126c0576040517f08c379a00000000000000000000000000000000000000000000000000000000081526004016126b790614b06565b60405180910390fd5b818303905092915050565b6000804690508091505090565b6000809054906101000a900473ffffffffffffffffffffffffffffffffffffffff1673ffffffffffffffffffffffffffffffffffffffff1663f2b06537868686868660405160200161272e959493929190614634565b604051602081830303815290604052805190602001206040518263ffffffff1660e01b81526004016127609190614757565b60206040518083038186803b15801561277857600080fd5b505afa15801561278c573d6000803e3d6000fd5b505050506040513d601f19601f820116820180604052506127b0919081019061329e565b156127f0576040517f08c379a00000000000000000000000000000000000000000000000000000000081526004016127e790614a26565b60405180910390fd5b6000809054906101000a900473ffffffffffffffffffffffffffffffffffffffff1673ffffffffffffffffffffffffffffffffffffffff16633a66f90186868686866040518663ffffffff1660e01b8152600401612852959493929190614634565b602060405180830381600087803b15801561286c57600080fd5b505af1158015612880573d6000803e3d6000fd5b505050506040513d601f19601f820116820180604052506128a491908101906132c7565b505050505050565b604051806101c0016040528060008152602001600073ffffffffffffffffffffffffffffffffffffffff168152602001600081526020016060815260200160608152602001606081526020016060815260200160008152602001600081526020016000815260200160008152602001600081526020016000151581526020016000151581525090565b8280548282559060005260206000209081019282156129ae579160200282015b828111156129ad5782518260006101000a81548173ffffffffffffffffffffffffffffffffffffffff021916908373ffffffffffffffffffffffffffffffffffffffff16021790555091602001919060010190612955565b5b5090506129bb9190612aff565b5090565b8280548282559060005260206000209081019282156129fb579160200282015b828111156129fa5782518255916020019190600101906129df565b5b509050612a089190612b42565b5090565b828054828255906000526020600020908101928215612a5b579160200282015b82811115612a5a578251829080519060200190612a4a929190612b67565b5091602001919060010190612a2c565b5b509050612a689190612be7565b5090565b828054828255906000526020600020908101928215612abb579160200282015b82811115612aba578251829080519060200190612aaa929190612c13565b5091602001919060010190612a8c565b5b509050612ac89190612c93565b5090565b604051806060016040528060001515815260200160001515815260200160006bffffffffffffffffffffffff1681525090565b612b3f91905b80821115612b3b57600081816101000a81549073ffffffffffffffffffffffffffffffffffffffff021916905550600101612b05565b5090565b90565b612b6491905b80821115612b60576000816000905550600101612b48565b5090565b90565b828054600181600116156101000203166002900490600052602060002090601f016020900481019282601f10612ba857805160ff1916838001178555612bd6565b82800160010185558215612bd6579182015b82811115612bd5578251825591602001919060010190612bba565b5b509050612be39190612b42565b5090565b612c1091905b80821115612c0c5760008181612c039190612cbf565b50600101612bed565b5090565b90565b828054600181600116156101000203166002900490600052602060002090601f016020900481019282601f10612c5457805160ff1916838001178555612c82565b82800160010185558215612c82579182015b82811115612c81578251825591602001919060010190612c66565b5b509050612c8f9190612b42565b5090565b612cbc91905b80821115612cb85760008181612caf9190612d07565b50600101612c99565b5090565b90565b50805460018160011615610100020316600290046000825580601f10612ce55750612d04565b601f016020900490600052602060002090810190612d039190612b42565b5b50565b50805460018160011615610100020316600290046000825580601f10612d2d5750612d4c565b601f016020900490600052602060002090810190612d4b9190612b42565b5b50565b600081359050612d5e8161519f565b92915050565b600082601f830112612d7557600080fd5b8135612d88612d8382614d1e565b614cf1565b91508181835260208401935060208101905083856020840282011115612dad57600080fd5b60005b83811015612ddd5781612dc38882612d4f565b845260208401935060208301925050600181019050612db0565b5050505092915050565b600082601f830112612df857600080fd5b8135612e0b612e0682614d46565b614cf1565b9150818183526020840193506020810190508360005b83811015612e515781358601612e378882612fa6565b845260208401935060208301925050600181019050612e21565b5050505092915050565b600082601f830112612e6c57600080fd5b8135612e7f612e7a82614d6e565b614cf1565b9150818183526020840193506020810190508360005b83811015612ec55781358601612eab888261304e565b845260208401935060208301925050600181019050612e95565b5050505092915050565b600082601f830112612ee057600080fd5b8135612ef3612eee82614d96565b614cf1565b91508181835260208401935060208101905083856020840282011115612f1857600080fd5b60005b83811015612f485781612f2e88826130f6565b845260208401935060208301925050600181019050612f1b565b5050505092915050565b600081359050612f61816151b6565b92915050565b600081519050612f76816151b6565b92915050565b600081359050612f8b816151cd565b92915050565b600081519050612fa0816151cd565b92915050565b600082601f830112612fb757600080fd5b8135612fca612fc582614dbe565b614cf1565b91508082526020830160208301858383011115612fe657600080fd5b612ff1838284615135565b50505092915050565b600082601f83011261300b57600080fd5b815161301e61301982614dea565b614cf1565b9150808252602083016020830185838301111561303a57600080fd5b613045838284615144565b50505092915050565b600082601f83011261305f57600080fd5b813561307261306d82614e16565b614cf1565b9150808252602083016020830185838301111561308e57600080fd5b613099838284615135565b50505092915050565b600082601f8301126130b357600080fd5b81356130c66130c182614e42565b614cf1565b915080825260208301602083018583830111156130e257600080fd5b6130ed838284615135565b50505092915050565b600081359050613105816151e4565b92915050565b60008151905061311a816151e4565b92915050565b60008135905061312f816151fb565b92915050565b60008151905061314481615212565b92915050565b60006020828403121561315c57600080fd5b600061316a84828501612d4f565b91505092915050565b6000806040838503121561318657600080fd5b600061319485828601612d4f565b92505060206131a5858286016130f6565b9150509250929050565b600080600080600060a086880312156131c757600080fd5b600086013567ffffffffffffffff8111156131e157600080fd5b6131ed88828901612d64565b955050602086013567ffffffffffffffff81111561320a57600080fd5b61321688828901612ecf565b945050604086013567ffffffffffffffff81111561323357600080fd5b61323f88828901612e5b565b935050606086013567ffffffffffffffff81111561325c57600080fd5b61326888828901612de7565b925050608086013567ffffffffffffffff81111561328557600080fd5b613291888289016130a2565b9150509295509295909350565b6000602082840312156132b057600080fd5b60006132be84828501612f67565b91505092915050565b6000602082840312156132d957600080fd5b60006132e784828501612f91565b91505092915050565b60006020828403121561330257600080fd5b600082015167ffffffffffffffff81111561331c57600080fd5b61332884828501612ffa565b91505092915050565b60006020828403121561334357600080fd5b6000613351848285016130f6565b91505092915050565b60006020828403121561336c57600080fd5b600061337a8482850161310b565b91505092915050565b6000806040838503121561339657600080fd5b60006133a4858286016130f6565b92505060206133b585828601612d4f565b9150509250929050565b600080604083850312156133d257600080fd5b60006133e0858286016130f6565b92505060206133f185828601612f52565b9150509250929050565b600080600080600060a0868803121561341357600080fd5b6000613421888289016130f6565b955050602061343288828901612f52565b945050604061344388828901613120565b935050606061345488828901612f7c565b925050608061346588828901612f7c565b9150509295509295909350565b60006020828403121561348457600080fd5b600061349284828501613135565b91505092915050565b60006134a78383613502565b60208301905092915050565b60006134bf8383613743565b905092915050565b60006134d38383613880565b905092915050565b60006134e78383614477565b60208301905092915050565b6134fc81615081565b82525050565b61350b81614ff7565b82525050565b61351a81614ff7565b82525050565b600061352b82614ed8565b6135358185614f64565b935061354083614e6e565b8060005b83811015613571578151613558888261349b565b975061356383614f30565b925050600181019050613544565b5085935050505092915050565b600061358982614ee3565b6135938185614f75565b9350836020820285016135a585614e7e565b8060005b858110156135e157848403895281516135c285826134b3565b94506135cd83614f3d565b925060208a019950506001810190506135a9565b50829750879550505050505092915050565b60006135fe82614eee565b6136088185614f86565b93508360208202850161361a85614e8e565b8060005b85811015613656578484038952815161363785826134c7565b945061364283614f4a565b925060208a0199505060018101905061361e565b50829750879550505050505092915050565b600061367382614ef9565b61367d8185614f97565b935061368883614e9e565b8060005b838110156136b95781516136a088826134db565b97506136ab83614f57565b92505060018101905061368c565b5085935050505092915050565b6136cf81615009565b82525050565b6136de81615009565b82525050565b6136ed81615015565b82525050565b6137046136ff82615015565b615177565b82525050565b600061371582614f0f565b61371f8185614fb9565b935061372f818560208601615144565b61373881615181565b840191505092915050565b600061374e82614f04565b6137588185614fa8565b9350613768818560208601615144565b61377181615181565b840191505092915050565b60008154600181166000811461379957600181146137bf57613803565b607f60028304166137aa8187614fb9565b955060ff198316865260208601935050613803565b600282046137cd8187614fb9565b95506137d885614eae565b60005b828110156137fa578154818901526001820191506020810190506137db565b80880195505050505b505092915050565b61381481615093565b82525050565b613823816150b7565b82525050565b613832816150db565b82525050565b613841816150ed565b82525050565b600061385282614f25565b61385c8185614fdb565b935061386c818560208601615144565b61387581615181565b840191505092915050565b600061388b82614f1a565b6138958185614fca565b93506138a5818560208601615144565b6138ae81615181565b840191505092915050565b60006138c482614f1a565b6138ce8185614fdb565b93506138de818560208601615144565b6138e781615181565b840191505092915050565b60008154600181166000811461390f576001811461393557613979565b607f60028304166139208187614fdb565b955060ff198316865260208601935050613979565b600282046139438187614fdb565b955061394e85614ec3565b60005b8281101561397057815481890152600182019150602081019050613951565b80880195505050505b505092915050565b600061398e603983614fdb565b91507f476f7665726e6f72416c7068613a3a5f5f61636365707441646d696e3a20736560008301527f6e646572206d75737420626520676f7620677561726469616e000000000000006020830152604082019050919050565b60006139f4604483614fdb565b91507f476f7665726e6f72416c7068613a3a71756575653a2070726f706f73616c206360008301527f616e206f6e6c792062652071756575656420696620697420697320737563636560208301527f65646564000000000000000000000000000000000000000000000000000000006040830152606082019050919050565b6000613a80604583614fdb565b91507f476f7665726e6f72416c7068613a3a657865637574653a2070726f706f73616c60008301527f2063616e206f6e6c79206265206578656375746564206966206974206973207160208301527f75657565640000000000000000000000000000000000000000000000000000006040830152606082019050919050565b6000613b0c600283614fec565b91507f19010000000000000000000000000000000000000000000000000000000000006000830152600282019050919050565b6000613b4c604c83614fdb565b91507f476f7665726e6f72416c7068613a3a5f5f6578656375746553657454696d656c60008301527f6f636b50656e64696e6741646d696e3a2073656e646572206d7573742062652060208301527f676f7620677561726469616e00000000000000000000000000000000000000006040830152606082019050919050565b6000613bd8601883614fdb565b91507f73657450656e64696e6741646d696e28616464726573732900000000000000006000830152602082019050919050565b6000613c18602983614fdb565b91507f476f7665726e6f72416c7068613a3a73746174653a20696e76616c696420707260008301527f6f706f73616c20696400000000000000000000000000000000000000000000006020830152604082019050919050565b6000613c7e602d83614fdb565b91507f476f7665726e6f72416c7068613a3a5f63617374566f74653a20766f7465722060008301527f616c726561647920766f746564000000000000000000000000000000000000006020830152604082019050919050565b6000613ce4605983614fdb565b91507f476f7665726e6f72416c7068613a3a70726f706f73653a206f6e65206c69766560008301527f2070726f706f73616c207065722070726f706f7365722c20666f756e6420616e60208301527f20616c72656164792070656e64696e672070726f706f73616c000000000000006040830152606082019050919050565b6000613d70604a83614fdb565b91507f476f7665726e6f72416c7068613a3a5f5f717565756553657454696d656c6f6360008301527f6b50656e64696e6741646d696e3a2073656e646572206d75737420626520676f60208301527f7620677561726469616e000000000000000000000000000000000000000000006040830152606082019050919050565b6000613dfc602883614fdb565b91507f476f7665726e6f72416c7068613a3a70726f706f73653a20746f6f206d616e7960008301527f20616374696f6e730000000000000000000000000000000000000000000000006020830152604082019050919050565b6000613e62601183614fdb565b91507f6164646974696f6e206f766572666c6f770000000000000000000000000000006000830152602082019050919050565b6000613ea2604383614fec565b91507f454950373132446f6d61696e28737472696e67206e616d652c75696e7432353660008301527f20636861696e49642c6164647265737320766572696679696e67436f6e74726160208301527f63742900000000000000000000000000000000000000000000000000000000006040830152604382019050919050565b6000613f2e602783614fec565b91507f42616c6c6f742875696e743235362070726f706f73616c49642c626f6f6c207360008301527f7570706f727429000000000000000000000000000000000000000000000000006020830152602782019050919050565b6000613f94604483614fdb565b91507f476f7665726e6f72416c7068613a3a70726f706f73653a2070726f706f73616c60008301527f2066756e6374696f6e20696e666f726d6174696f6e206172697479206d69736d60208301527f61746368000000000000000000000000000000000000000000000000000000006040830152606082019050919050565b6000614020602f83614fdb565b91507f476f7665726e6f72416c7068613a3a63616e63656c3a2070726f706f7365722060008301527f61626f7665207468726573686f6c6400000000000000000000000000000000006020830152604082019050919050565b6000614086604483614fdb565b91507f476f7665726e6f72416c7068613a3a5f71756575654f725265766572743a207060008301527f726f706f73616c20616374696f6e20616c72656164792071756575656420617460208301527f20657461000000000000000000000000000000000000000000000000000000006040830152606082019050919050565b6000614112602c83614fdb565b91507f476f7665726e6f72416c7068613a3a70726f706f73653a206d7573742070726f60008301527f7669646520616374696f6e7300000000000000000000000000000000000000006020830152604082019050919050565b6000614178603f83614fdb565b91507f476f7665726e6f72416c7068613a3a70726f706f73653a2070726f706f73657260008301527f20766f7465732062656c6f772070726f706f73616c207468726573686f6c64006020830152604082019050919050565b60006141de602f83614fdb565b91507f476f7665726e6f72416c7068613a3a63617374566f746542795369673a20696e60008301527f76616c6964207369676e617475726500000000000000000000000000000000006020830152604082019050919050565b6000614244605883614fdb565b91507f476f7665726e6f72416c7068613a3a70726f706f73653a206f6e65206c69766560008301527f2070726f706f73616c207065722070726f706f7365722c20666f756e6420616e60208301527f20616c7265616479206163746976652070726f706f73616c00000000000000006040830152606082019050919050565b60006142d0603683614fdb565b91507f476f7665726e6f72416c7068613a3a63616e63656c3a2063616e6e6f7420636160008301527f6e63656c2065786563757465642070726f706f73616c000000000000000000006020830152604082019050919050565b6000614336602a83614fdb565b91507f476f7665726e6f72416c7068613a3a5f63617374566f74653a20766f74696e6760008301527f20697320636c6f736564000000000000000000000000000000000000000000006020830152604082019050919050565b600061439c601583614fdb565b91507f7375627472616374696f6e20756e646572666c6f7700000000000000000000006000830152602082019050919050565b60006143dc603683614fdb565b91507f476f7665726e6f72416c7068613a3a5f5f61626469636174653a2073656e646560008301527f72206d75737420626520676f7620677561726469616e000000000000000000006020830152604082019050919050565b60608201600082015161444b60008501826136c6565b50602082015161445e60208501826136c6565b50604082015161447160408501826144b3565b50505050565b61448081615052565b82525050565b61448f81615052565b82525050565b61449e8161505c565b82525050565b6144ad81615123565b82525050565b6144bc81615069565b82525050565b60006144cd82613aff565b91506144d982856136f3565b6020820191506144e982846136f3565b6020820191508190509392505050565b600061450482613e95565b9150819050919050565b600061451982613f21565b9150819050919050565b60006020820190506145386000830184613511565b92915050565b600060408201905061455360008301856134f3565b6145606020830184614486565b9392505050565b600060a08201905061457c6000830187613511565b6145896020830186613838565b818103604083015261459a81613bcb565b905081810360608301526145ae818561370a565b90506145bd6080830184614486565b95945050505050565b60006040820190506145db6000830185613511565b6145e86020830184614486565b9392505050565b60006080820190506146046000830187613511565b6146116020830186614486565b61461e60408301856136d5565b61462b60608301846144a4565b95945050505050565b600060a0820190506146496000830188613511565b6146566020830187614486565b81810360408301526146688186613847565b9050818103606083015261467c818561370a565b905061468b6080830184614486565b9695505050505050565b600060a0820190506146aa6000830188613511565b6146b76020830187614486565b81810360408301526146c981866138f2565b905081810360608301526146dd818561377c565b90506146ec6080830184614486565b9695505050505050565b600060808201905081810360008301526147108187613520565b905081810360208301526147248186613668565b9050818103604083015261473881856135f3565b9050818103606083015261474c818461357e565b905095945050505050565b600060208201905061476c60008301846136e4565b92915050565b600060808201905061478760008301876136e4565b61479460208301866136e4565b6147a16040830185614486565b6147ae6060830184613511565b95945050505050565b60006060820190506147cc60008301866136e4565b6147d96020830185614486565b6147e660408301846136d5565b949350505050565b600060808201905061480360008301876136e4565b6148106020830186614495565b61481d60408301856136e4565b61482a60608301846136e4565b95945050505050565b6000602082019050614848600083018461380b565b92915050565b6000602082019050614863600083018461381a565b92915050565b600060208201905061487e6000830184613829565b92915050565b6000602082019050818103600083015261489e81846138b9565b905092915050565b600060208201905081810360008301526148bf81613981565b9050919050565b600060208201905081810360008301526148df816139e7565b9050919050565b600060208201905081810360008301526148ff81613a73565b9050919050565b6000602082019050818103600083015261491f81613b3f565b9050919050565b6000602082019050818103600083015261493f81613c0b565b9050919050565b6000602082019050818103600083015261495f81613c71565b9050919050565b6000602082019050818103600083015261497f81613cd7565b9050919050565b6000602082019050818103600083015261499f81613d63565b9050919050565b600060208201905081810360008301526149bf81613def565b9050919050565b600060208201905081810360008301526149df81613e55565b9050919050565b600060208201905081810360008301526149ff81613f87565b9050919050565b60006020820190508181036000830152614a1f81614013565b9050919050565b60006020820190508181036000830152614a3f81614079565b9050919050565b60006020820190508181036000830152614a5f81614105565b9050919050565b60006020820190508181036000830152614a7f8161416b565b9050919050565b60006020820190508181036000830152614a9f816141d1565b9050919050565b60006020820190508181036000830152614abf81614237565b9050919050565b60006020820190508181036000830152614adf816142c3565b9050919050565b60006020820190508181036000830152614aff81614329565b9050919050565b60006020820190508181036000830152614b1f8161438f565b9050919050565b60006020820190508181036000830152614b3f816143cf565b9050919050565b6000606082019050614b5b6000830184614435565b92915050565b6000602082019050614b766000830184614486565b92915050565b600061012082019050614b92600083018c614486565b614b9f602083018b6134f3565b8181036040830152614bb1818a613520565b90508181036060830152614bc58189613668565b90508181036080830152614bd981886135f3565b905081810360a0830152614bed818761357e565b9050614bfc60c0830186614486565b614c0960e0830185614486565b818103610100830152614c1c8184613847565b90509a9950505050505050505050565b600061014082019050614c42600083018d614486565b614c4f602083018c613511565b614c5c604083018b614486565b614c69606083018a614486565b614c766080830189614486565b614c8360a0830188614486565b614c9060c0830187614486565b614c9d60e0830186614486565b614cab6101008301856136d5565b614cb96101208301846136d5565b9b9a5050505050505050505050565b6000604082019050614cdd6000830185614486565b614cea6020830184614486565b9392505050565b6000604051905081810181811067ffffffffffffffff82111715614d1457600080fd5b8060405250919050565b600067ffffffffffffffff821115614d3557600080fd5b602082029050602081019050919050565b600067ffffffffffffffff821115614d5d57600080fd5b602082029050602081019050919050565b600067ffffffffffffffff821115614d8557600080fd5b602082029050602081019050919050565b600067ffffffffffffffff821115614dad57600080fd5b602082029050602081019050919050565b600067ffffffffffffffff821115614dd557600080fd5b601f19601f8301169050602081019050919050565b600067ffffffffffffffff821115614e0157600080fd5b601f19601f8301169050602081019050919050565b600067ffffffffffffffff821115614e2d57600080fd5b601f19601f8301169050602081019050919050565b600067ffffffffffffffff821115614e5957600080fd5b601f19601f8301169050602081019050919050565b6000819050602082019050919050565b6000819050602082019050919050565b6000819050602082019050919050565b6000819050602082019050919050565b60008190508160005260206000209050919050565b60008190508160005260206000209050919050565b600081519050919050565b600081519050919050565b600081519050919050565b600081519050919050565b600081519050919050565b600081519050919050565b600081519050919050565b600081519050919050565b6000602082019050919050565b6000602082019050919050565b6000602082019050919050565b6000602082019050919050565b600082825260208201905092915050565b600082825260208201905092915050565b600082825260208201905092915050565b600082825260208201905092915050565b600082825260208201905092915050565b600082825260208201905092915050565b600082825260208201905092915050565b600082825260208201905092915050565b600081905092915050565b600061500282615032565b9050919050565b60008115159050919050565b6000819050919050565b600081905061502d82615192565b919050565b600073ffffffffffffffffffffffffffffffffffffffff82169050919050565b6000819050919050565b600060ff82169050919050565b60006bffffffffffffffffffffffff82169050919050565b600061508c826150ff565b9050919050565b600061509e826150a5565b9050919050565b60006150b082615032565b9050919050565b60006150c2826150c9565b9050919050565b60006150d482615032565b9050919050565b60006150e68261501f565b9050919050565b60006150f882615052565b9050919050565b600061510a82615111565b9050919050565b600061511c82615032565b9050919050565b600061512e82615069565b9050919050565b82818337600083830152505050565b60005b83811015615162578082015181840152602081019050615147565b83811115615171576000848401525b50505050565b6000819050919050565b6000601f19601f8301169050919050565b6008811061519c57fe5b50565b6151a881614ff7565b81146151b357600080fd5b50565b6151bf81615009565b81146151ca57600080fd5b50565b6151d681615015565b81146151e157600080fd5b50565b6151ed81615052565b81146151f857600080fd5b50565b6152048161505c565b811461520f57600080fd5b50565b61521b81615069565b811461522657600080fd5b5056fea365627a7a72315820d20b6602c4d847faccd931dbd6499c41f3403f212fb7e41a6fc0464e462a37a96c6578706572696d656e74616cf564736f6c63430005100040",
  "linkReferences": {},
  "deployedLinkReferences": {}
}